:1000000014C32EC32DC32CC32BC32AC329C328C397
:1000100027C326C325C324C323C322C321C300008F
:1000200000000000000000000000000000000000D0
:1000300000F8000000000000003330000000001055
:100040000C06100C0600000000000000000040C07C
:100050007840C0784000043F04043F04040000706E
:1000600088FC08300000001820FF211E0000F00866
:10007000F000E018000000211C031E211E0000F00B
:100080000888700000001E21232419272110101653
:100090000E00000000000000000000000000000052
:1000A00000E01804020000000007182040000002D1
:1000B0000418E00000000040201807000000404045
:1000C00080F0804040000202010F010202000000A7
:1000D00000F0000000000101011F0101010000000B
:1000E00000000000000080B0700000000000000070
:1000F00000000000000000010101010101010000F9
:10010000000000000000003030000000000000008F
:10011000000080601804006018060100000000E084
:1001200010080810E000000F102020100F00001031
:1001300010F8000000000020203F20200000007088
:100140000808088870000030282422213000003080
:100150000888884830000018202020110E00000078
:10016000C02010F8000000070424243F240000F8F9
:100170000888880808000019212020110E0000E0DE
:10018000108888180000000F112020110E00003880
:100190000808C83808000000003F00000000007098
:1001A000880808887000001C222121221C0000E021
:1001B00010080810E0000000312222110F0000009A
:1001C00000C0C0000000000000303000000000004F
:1001D00000800000000000008060000000000000BF
:1001E0008040201008000001020408102000404058
:1001F000404040404000040404040404040000089B
:10020000102040800000002010080402010000704F
:1002100048080808F0000000003036010000C03037
:10022000C828E810E0000718272423140B0000005A
:10023000C038E0000000203C23020227382008F8E4
:10024000888888700000203F202020110E00C030D8
:10025000080808083800071820202010080008F8AF
:1002600008080810E000203F202020100F0008F8A8
:100270008888E8081000203F20202320180008F874
:100280008888E8081000203F200003000000C030EC
:1002900008080838000007182020221E020008F86D
:1002A00008000008F808203F210101213F20000834
:1002B00008F8080800000020203F2020000000006F
:1002C0000808F8080800C08080807F00000008F857
:1002D00088C028180800203F20012638200008F890
:1002E000080000000000203F20202020300008F8F7
:1002F000F800F8F80800203F003F003F200008F811
:1003000030C00008F808203F200007183F00E01028
:1003100008080810E0000F10202020100F0008F837
:1003200008080808F000203F210101010000E0104A
:1003300008080810E0000F18242438504F0008F86F
:10034000888888887000203F2000030C30200070CF
:100350008808080838000038202121221C001808CD
:1003600008F8080818000000203F2000000008F8E6
:1003700008000008F808001F202020201F0008782F
:10038000880000C83808000007380E010000F8088F
:1003900000F80008F800033C0700073C03000818B9
:1003A00068808068180820302C03032C302008381F
:1003B000C800C83808000000203F200000001008D6
:1003C0000808C8380800203826212020180000001E
:1003D00000FE020202000000007F40404000000CCE
:1003E00030C000000000000000010638C00000021C
:1003F0000202FE000000004040407F0000000000BC
:1004000004020202040000000000000000000000DE
:1004100000000000000080808080808080800002DA
:1004200002040000000000000000000000000000C6
:100430008080808000000019242222223F2008F8BA
:10044000008080000000003F112020110E000000FD
:10045000008080800000000E11202020110000008C
:1004600000808088F800000E112020103F2000003E
:10047000808080800000001F222222221300008042
:1004800080F0888888180020203F2020000000008D
:10049000808080808000006B94949493600008F8C2
:1004A000008080800000203F210000203F2000804D
:1004B0009898000000000020203F2020000000004D
:1004C00000809898000000C08080807F000008F8BD
:1004D000000080808000203F24022D302000000892
:1004E00008F8000000000020203F2020000080804D
:1004F000808080808000203F20003F20003F80805F
:10050000008080800000203F210000203F2000006C
:10051000808080800000001F202020201F0080801D
:1005200000808000000080FFA12020110E0000004C
:10053000008080808000000E112020A0FF8080803D
:1005400080008080800020203F21200001000000EA
:1005500080808080800000332424242419000080BF
:1005600080E0808000000000001F202000008080CC
:10057000000000808000001F202020103F2080808D
:1005800080000080808000010E300806010080801D
:100590000080008080800F300C030C300F00008042
:1005A0008000808080000020312E0E31200080806D
:1005B00080000080808080818E701806010000809D
:1005C0008080808080000021302C222130000000BB
:1005D0000000807C020200000000003F404000005C
:1005E0000000FF00000000000000FF00000000020B
:1005F000027C800000000040403F00000000000638
:100600000101020204040000000000000000AE200E
:1006100000B0C8001040813FA1A6A83FA4D300D5D8
:10062000F0D922DA12DB208D14AF11241FBECFE5E2
:10063000D2E0DEBFCDBF10E0A0E6B0E0ECE1FBE031
:1006400002C005900D92A836B107D9F720E0A8E6C0
:10065000B0E001C01D92A936B207E1F7C9D15CC272
:10066000CFCCAF92BF92CF92DF92EF92FF920F93D7
:100670001F93CF93DF93182F062F7A015A01A20EF2
:10068000B11CAE14BF0409F448C0F701C1917F0149
:10069000C052193710F00F5F10E0602F812F8FD0FC
:1006A00077D0D0E084E0CC0FDD1F8A95E1F7C12C34
:1006B000D12CFE01EC0DFD1DE25EFF4F849142D076
:1006C000FFEFCF1ADF0A88E0C816D10491F765D092
:1006D000EFECF7E03197F1F700C0000061E0600F48
:1006E000812F6DD055D0C12CD12C2896FE01EC0D58
:1006F000FD1DE25EFF4F849125D0FFEFCF1ADF0A88
:1007000088E0C816D10491F748D0EFECF7E03197B4
:10071000F1F700C00000185FB4CFDF91CF911F91B7
:100720000F91FF90EF90DF90CF90BF90AF90089522
:10073000C39AC49AC498C3980895C398C498C39A96
:10074000C49A089520E030E090E0AC01022E01C090
:10075000440F0A94EAF747FF02C0C49A01C0C49844
:10076000C39AC3982F5F3F4F2830310571F7C49A61
:10077000C39AC3980895DCDF88E7E4DF80E0E2CF26
:10078000DCCFCF93C82FF7DF8C2FDCDFCF91D5CF15
:10079000CFDF88E7D7DF80E4D5CFCFCFCF93DF930C
:1007A000BC9ABB9ACEE0D6E0FE018491EADF2196A6
:1007B000F6E0CA32DF07C1F7DF91CF910895CF93FA
:1007C000DF93C82FD62FD7DF80EB8D0FBBDF8C2FA9
:1007D00082958F708061B6DF8C2F8F70B3DFDF91D1
:1007E000CF91ABCFEF92FF920F931F93CF93DF93F5
:1007F000E82EF62E042F122F60E080E0E0DFC8DF45
:10080000C0E0D1E08E2D9EDF8F2D9CDF802F9ADF00
:10081000812F98DF2197B1F7DF91CF911F910F9131
:10082000FF90EF908ACFCF93C82FB2DF8C2F8ADF53
:10083000CF9183CFC09AC29ABA9AB89A8FEF8FB9E4
:100840008AE28DB980EF8EB908958EB98BE29DE072
:100850009A95F1F700008DB9B29BFECF9AE09A9578
:10086000F1F700C08DB9769BF2CF8DE08A95F1F754
:1008700000008FB19FEF9FB9B89A0895C29AC29BAA
:10088000FECF8DE08A95F1F70000C0988AE08A9546
:10089000F1F700C0C298C09A779B02C080E008952B
:1008A00083E00895C098C29AB29BFECF8AE08A95F1
:1008B000F1F700C0C09A8DE08A95F1F70000759BB2
:1008C00002C080E0089584E00895AF92BF92CF9275
:1008D000DF92EF92FF920F931F93CF93DF938C01E0
:1008E000E62E80916800816080936800F801908115
:1008F00090FD03C0826080936800C0DF81114FC00B
:10090000FE2CE801BB24BA94AA24A3948091680029
:1009100083709E012F5F3F4F6901882321F1C298A8
:1009200088818FB980EF91DFB8988EEF8EDF90913C
:10093000680080FF04C090FD31C082E030C0892F84
:100940008570843061F4F801808181608083A09299
:10095000680094DF811123C0FE2CE80111C09E7F46
:10096000909368000CC0B89880EF6FDF8883F1E047
:10097000FF1202C0BFB801C01FB88EEF66DFE601EC
:10098000FA94F110C3CFDF91CF911F910F91FF9097
:10099000EF90DF90CF90BF90AF9084CF81E0DF9158
:1009A000CF911F910F91FF90EF90DF90CF90BF906C
:1009B000AF900895FC0120812E7F208324E02093B6
:1009C000680083CFFB01880F8083642FCF01F2CFB3
:1009D000109268007ACFFB01880F8083642FCF01CB
:1009E000F7CFFB01880F81608083642FCF01F0CFA8
:1009F000CF93DF93CDB7DEB768970FB6F894DEBF1D
:100A00000FBECDBF17DFCADE8FE19EE40197F1F77D
:100A100000C0000020E040E060E080E0E3DE60E055
:100A200080E0CDDE00E814E080E0FDDE0150110939
:100A3000D9F79FEF20E782E0915020408040E1F716
:100A400000C0000017E01E8B44E0BE016B5E7F4FCC
:100A50008AE5B8DF8E899F89880F991F4AE0BE0119
:100A60006F5F7F4F835B9A4624D025E040E650E0DD
:100A700060E080E0F6DD22E0AE014F5F5F4F60E0B6
:100A800088E2EFDD21E046E650E060E088E3E9DD62
:100A900022E0AE014D5F5F4F60E080E4E2DD9FEF5A
:100AA00020E782E0915020408040E1F700C0000044
:100AB000CACFBB274A3031F4992322F4BDE2909586
:100AC00081959F4F01C0BB27FB015527AA27880F9F
:100AD000991FAA1FA41710F0A41B83955051B9F7B2
:100AE000A05DAA3308F0A95DA193009779F7B11131
:100AF000B1931192CB0100C0DC01FC01672F719111
:100B00007723E1F7329704C07C916D9370836291F3
:0C0B1000AE17BF07C8F30895F894FFCF9C
:080B1C0074656D703A002E00B3
:00000001FF
