:100000000EC015C014C013C012C011C010C00FC064
:100010000EC00DC039C00BC02DC009C008C01124CE
:100020001FBECFE5D2E0DEBFCDBF40D04EC0E8CF8F
:1000300084B7877F84BF81B5886181BD80E281BD3F
:1000400081B5806481BD08953798F2DF85B7877EDA
:10005000806185BF85B7806285BF789485B78062EF
:1000600085BF889585B78F7D85BF85B78F7D85BF17
:10007000379A08951F920F920FB60F9211240F9086
:100080000FBE0F901F9018951F920F920FB60F92F0
:1000900011248F939F9398B388E0892788BB9F9101
:1000A0008F910F900FBE0F901F901895BB9AC39A17
:1000B0002FEF87EA91E6215080409040E1F700C0A1
:0E00C0000000C398C398C0DFF1CFF894FFCFC3
:00000001FF
