:100000000EC028C027C026C025C024C023C022C0DF
:1000100021C020C020C01EC01DC01CC01BC0112498
:100020001FBECFE5D2E0DEBFCDBF10E0A0E6B0E05E
:10003000E6E2F6E002C005900D92A237B107D9F7CB
:1000400020E0A2E7B0E001C01D92A139B207E1F7BC
:1000500009D1E7C2D5CF1F920F920FB60F9211248C
:100060002F933F934F935F936F937F938F939F93C0
:10007000AF9380917200882319F1809185008111DE
:1000800002C0C49818C080918500893068F48091BE
:10009000860080FF02C0C49A01C0C4988091860087
:1000A00086958093860007C080918500893018F07E
:1000B000C49A10927200809185008F5F80938500B2
:1000C00080917B0090917C0089599F4F90937C0098
:1000D00080937B0080917B0090917C00893E9340CF
:1000E00048F120917D0030917E0040917F00509139
:1000F00080006091810070918200809183009091D6
:100100008400A1E0B2D020937D0030937E00409324
:100110007F005093800060938100709382008093F1
:1001200083009093840080917B0090917C00885E96
:100130009340CCCFAF919F918F917F916F915F91C1
:100140004F913F912F910F900FBE0F901F901895D8
:10015000909172009111FCCF1092850080938600DF
:1001600081E0809372000895CF93C82FF1DF8C2F28
:10017000CC0F990BCF91089560E070E084EB90E094
:1001800089C0F89420917D0030917E0040917F00DD
:100190005091800060918100709182008091830075
:1001A0009091840078940895BB9AC39ABC9AC49A9B
:1001B0008AB582608ABD83B7826083BF87E689BDC6
:1001C00089B7806189BF7894D7CFAF92BF92CF9221
:1001D000DF92EF92FF920F931F93D3DFA0907300F3
:1001E000B0907400C0907500D0907600E0907700D9
:1001F000F09078000091790010917A0042D0203D73
:10020000374041055105610571058105910509F1E9
:1002100000F198B388E0892788BBB3DF209373008F
:10022000309374004093750050937600609377008C
:10023000709378008093790090937A0086E690E03E
:100240001F910F91FF90EF90DF90CF90BF90AF90F4
:100250006BC01F910F91FF90EF90DF90CF90BF90F8
:10026000AF900895A1DFB1DFFECF0024A7FD009479
:100270002A0F301D401D501D601D701D801D901DDA
:1002800008952A193B094C095D096E097F09800B05
:10029000910B08950F931F93CF93DF93009731F441
:1002A0006115710519F480E090E039C08B01EC0113
:1002B0006EE070E081E090E067D0FC01892B99F35B
:1002C00080E883830115110571F01387028781E8A7
:1002D00083838091870090918800892B21F4F0938B
:1002E0008800E09387002097C9F0D187C087838179
:1002F000826083838091890090918A00892B71F4B8
:10030000F0938A00E093890080918B0090918C009B
:10031000892B21F4F0938C00E0938B00CF01DF91C7
:10032000CF911F910F9108950F931F93CF93DF9358
:10033000E0918900F0918A00238121FF1BC08C018C
:10034000D0E0C0E0F80181918F0160918900709147
:100350008A00DB011896ED91FC911997882331F002
:100360000995892B79F3DFEFCFEFECCF8AE0099580
:10037000892B19F08FEF9FEF02C08D2F9C2FDF91FB
:10038000CF911F910F9108950F931F93CF93DF93F8
:1003900037D18C010DD0EC01009721F0A80160E06D
:1003A00070E027D1CE01DF91CF911F910F91089579
:1003B0000F931F93CF93DF938230910510F482E067
:1003C00090E0E0918F00F091900020E030E0A0E01C
:1003D000B0E0309719F140815181028113814817B3
:1003E0005907C8F08417950769F4109731F01296F1
:1003F0000C93129713961C9327C000938F001093B1
:10040000900022C02115310519F04217530718F446
:100410009A01BD01EF01DF01F801DBCF21153105A4
:10042000F9F0281B390B2430310580F48A819B8137
:100430006115710521F0FB019383828304C09093C1
:10044000900080938F00FE01329644C0FE01E20FBF
:10045000F31F8193919322503109398328833AC045
:1004600020918D0030918E00232B41F42091620069
:100470003091630030938E0020938D0020916000B6
:10048000309161002115310541F42DB73EB74091FF
:10049000640050916500241B350BE0918D00F091B4
:1004A0008E00E217F307A0F42E1B3F0B2817390725
:1004B00078F0AC014E5F5F4F2417350748F04E0FC0
:1004C0005F1F50938E0040938D008193919302C0E3
:1004D000E0E0F0E0CF01DF91CF911F910F910895FF
:1004E000CF93DF93009709F481C0FC013297138208
:1004F0001282A0918F00B0919000109781F420811A
:100500003181820F931F20918D0030918E0028172A
:10051000390751F5F0938E00E0938D0067C0ED012F
:1005200020E030E0CE17DF0740F44A815B819E0176
:1005300041155105F1F0EA01F5CFD383C283408123
:100540005181840F951FC817D90759F48881998163
:10055000840F951F0296918380838A819B81938368
:1005600082832115310529F4F0939000E0938F00E8
:100570003DC0E901FB83EA8349915991C40FD51F1E
:10058000EC17FD0761F480819181840F951F02961D
:10059000E90199838883828193819B838A83E0E048
:1005A000F0E012968D919C911397009719F0FD0140
:1005B000DC01F7CF8D919C9111979D012E5F3F4FEC
:1005C000820F931F20918D0030918E0028173907DC
:1005D00069F4309729F41092900010928F0002C0B5
:1005E00013821282B0938E00A0938D00DF91CF9181
:1005F0000895DC0101C06D9341505040E0F708952B
:100600000024552704C0080E591F880F991F009712
:1006100029F076956795B8F37105B9F7802D952F78
:060620000895F894FFCFDD
:10062600000091002000746F67676C65204C45449C
:020636000D00B5
:00000001FF
