:100000001CC023C022C021C020C01FC01EC01DC0F4
:100010001CC01BC01AC019C018C017C016C0AE2023
:1000200000B0C8001040813FA1A6A83FA4D300D5CE
:10003000F0D922DA12DB208D14AF11241FBECFE5D8
:10004000D2E0DEBFCDBF84D0D6C0DACFC29AC09A8C
:10005000C098C2980895C298C098C29AC09A08954C
:1000600020E030E090E0AC01022E01C0440F0A9481
:10007000EAF747FF02C0C09A01C0C098C29AC2986E
:100080002F5F3F4F2830310571F7C09AC29AC2984E
:100090000895DCDF88E7E4DF80E0E2CFDCCFCF93B8
:1000A000C82FF7DF8C2FDCDFCF91D5CFCFDF88E7EC
:1000B000D7DF80E4D5CFCFCFCF93DF93B89ABA9A6A
:1000C000CEE1D0E0FE018491EADF2196F0E0CA3370
:1000D000DF07C1F7DF91CF910895CF93DF93C82F4A
:1000E000D62FD7DF80EB8D0FBBDF8C2F82958F70E3
:1000F0008061B6DF8C2F8F70B3DFDF91CF91ABCFF4
:10010000EF92FF920F931F93CF93DF93E82EF62E7B
:10011000042F122F60E080E0E0DFC8DFC0E0D1E014
:100120008E2D9EDF8F2D9CDF802F9ADF812F98DF11
:100130002197B1F7DF91CF911F910F91FF90EF9031
:100140008ACFCF93C82FB2DF8C2F8ADFCF9183CF96
:100150000F931F93CF93DF93BB9AC39AADDF20E039
:1001600040E060E080E0CCDF60E080E0B6DFC0E04F
:10017000D0E005E010E0CE01B80129D0892B11F4C0
:100180008FEF01C080E0DDDF2196C03824E0D20788
:1001900091F78FEF94E32CE0815090402040E1F7FD
:1001A00000C0000020E040E060E080E0A9DF8FEFC9
:1001B00094E32CE0815090402040E1F700C0000023
:1001C00080E090E0DF91CF911F910F910895AA1BDD
:1001D000BB1B51E107C0AA1FBB1FA617B70710F032
:1001E000A61BB70B881F991F5A95A9F78095909564
:0A01F000BC01CD010895F894FFCF83
:00000001FF
