:100000000EC028C027C026C025C024C023C022C0DF
:1000100021C020C020C01EC01DC01CC01BC0112498
:100020001FBECFE5D2E0DEBFCDBF10E0A0E6B0E05E
:10003000EAE3F3E002C005900D92A437B107D9F7C7
:1000400020E0A4E7B0E001C01D92A938B207E1F7B3
:10005000DAD071C1D5CF1F920F920FB60F92112433
:100060002F933F934F935F936F937F938F939F93C0
:10007000AF9380917600882329F1809175008111DA
:1000800002C0C4981AC080917500893078F48091BC
:10009000740080FF02C0C49A01C0C49880917400AB
:1000A00090E0959587958093740007C080917500C6
:1000B000893018F0C49A10927600809175008F5F95
:1000C0008093750080917F009091800089599F4FA7
:1000D0009093800080937F0080917F0090918000BA
:1000E000893E934048F120918100309182004091F7
:1000F000830050918400609185007091860080910A
:10010000870090918800A1E0BFD0209381003093B8
:100110008200409383005093840060938500709325
:100120008600809387009093880080917F00909153
:100130008000885E9340CCCFAF919F918F917F914B
:100140006F915F914F913F912F910F900FBE0F9044
:100150001F9018958AB582608ABD83B7826083BF7D
:1001600087E689BD89B7806189BF789408959091A9
:1001700076009111FCCF109275008093740081E09D
:10018000809376000895CF93C82FE82FF0E084E0A5
:10019000F595E7958A95E1F7E05AFF4F8081E7DF13
:1001A000CF70EC2FF0E0E05AFF4F8081E0DF8AE073
:1001B000CF91DDCF0F931F93CF938C01C0E0F80157
:1001C000EC0FF11D8081882319F0D1DFCF5FF7CFCD
:1001D000CF911F910F9108958CE087B98FE99FE02F
:1001E0000197F1F700C00000379A369A3699FECF92
:1001F00024B135B140E050E064EB7BE281E190E076
:1002000027D0C9010895CF93DF93CDB7DEB76497A8
:100210000FB6F894DEBF0FBECDBFBB9AC39ABC9A8F
:10022000C49A98DFD9DF4AE0BE016F5F7F4F5AD092
:10023000CE010196BFDF81E790E0BCDF2FEF80E7C2
:1002400092E0215080409040E1F700C00000EACFEA
:10025000052E97FB16F400940FD057FD05D020D043
:1002600007FC02D046F408C0509540953095219582
:100270003F4F4F4F5F4F08959095809570956195D2
:100280007F4F8F4F9F4F08950024A7FD00942A0FA2
:10029000301D401D501D601D701D801D901D089556
:1002A000A1E21A2EAA1BBB1BFD010DC0AA1FBB1F7A
:1002B000EE1FFF1FA217B307E407F50720F0A21BEC
:1002C000B30BE40BF50B661F771F881F991F1A9459
:1002D00069F760957095809590959B01AC01BD0183
:1002E000CF010895BB27FB015527AA27880F991F27
:1002F000AA1FA41710F0A41B83955051B9F7A05D55
:10030000AA3308F0A95DA193009779F7B111B193D1
:100310001192CB0100C0DC01FC01672F71917723A2
:10032000E1F7329704C07C916D9370836291AE17B0
:0A033000BF07C8F30895F894FFCF4B
:10033A003031323334353637383941424344454611
:04034A00000A0A009B
:00000001FF
