:100000000EC028C027C026C025C024C023C022C0DF
:1000100021C020C020C01EC01DC01CC01BC0112498
:100020001FBECFE5D2E0DEBFCDBF10E0A0E6B0E05E
:10003000E8EFF3E002C005900D92A237B107D9F7BF
:1000400020E0A2E7B0E001C01D92A838B207E1F7B6
:1000500094D1D0C1D5CF1F920F920FB60F92112419
:100060002F933F934F935F936F937F938F939F93C0
:10007000AF9380917400882329F1809173008111DE
:1000800002C0C4981AC080917300893078F48091BE
:10009000720080FF02C0C49A01C0C49880917200AF
:1000A00090E0959587958093720007C080917300CA
:1000B000893018F0C49A10927400809173008F5F99
:1000C0008093730080917D0090917E0089599F4FAD
:1000D00090937E0080937D0080917D0090917E00C2
:1000E000893E934048F120917F00309180004091FB
:1000F0008100509182006091830070918400809112
:10010000850090918600A1E069D120937F00309313
:10011000800040938100509382006093830070932D
:100120008400809385009093860080917D0090915B
:100130007E00885E9340CCCFAF919F918F917F914D
:100140006F915F914F913F912F910F900FBE0F9044
:100150001F901895909174009111FCCF109273002C
:100160008093720081E0809374000895CF93C82F2C
:10017000E82FF0E084E0F595E7958A95E1F7E05AFD
:10018000FF4F8081E7DFCF70EC2FF0E0E05AFF4FA8
:100190008081E0DF8AE0CF91DDCF0F931F93CF9373
:1001A0008C01C0E0F801EC0FF11D8081882319F06B
:1001B000D1DFCF5FF7CFCF911F910F910895C09AF4
:1001C000C29ABA9AB89A8FEF8FB98AE28DB980EF46
:1001D0008EB908958EB98BE29DE09A95F1F70000F3
:1001E0008DB9B29BFECF9AE09A95F1F700C08DB918
:1001F000769BF2CF8DE08A95F1F700008FB19FEFEB
:100200009FB9B89A0895C29AC29BFECF8DE08A9595
:10021000F1F70000C0988AE08A95F1F700C0C29813
:10022000C09A779B02C080E0089583E00895C0984B
:10023000C29AB29BFECF8AE08A95F1F700C0C09ABD
:100240008DE08A95F1F70000759B02C080E008956B
:1002500084E00895AF92BF92CF92DF92EF92FF9227
:100260000F931F93CF93DF938C01E62E809187002D
:10027000816080938700F801908190FD03C08260C7
:1002800080938700C0DF81114FC0FE2CE801BB24A2
:10029000BA94AA24A3948091870083709E012F5F53
:1002A0003F4F6901882321F1C29888818FB980EF7F
:1002B00091DFB8988EEF8EDF9091870080FF04C0A9
:1002C00090FD31C082E030C0892F8570843061F4A8
:1002D000F801808181608083A092870094DF811182
:1002E00023C0FE2CE80111C09E7F909387000CC0B4
:1002F000B89880EF6FDF8883F1E0FF1202C0BFB8CB
:1003000001C01FB88EEF66DFE601FA94F110C3CF8B
:10031000DF91CF911F910F91FF90EF90DF90CF90E1
:10032000BF90AF9084CF81E0DF91CF911F910F916B
:10033000FF90EF90DF90CF90BF90AF900895FC01B9
:1003400020812E7F208324E02093870083CFFB0130
:10035000880F8083642FCF01F2CF109287007ACF6D
:10036000FB01880F8083642FCF01F7CFFB01880F3B
:1003700081608083642FCF01F0CFCF93DF9300D0D3
:1003800000D0CDB7DEB7BB9AC39ABC9AC49A8AB5DF
:1003900082608ABD83B7826083BF87E689BD89B7E3
:1003A000806189BF78940BDF17E01A8344E0BE01B7
:1003B0006F5F7F4F8AE5CBDF8A819B81863A9943C5
:1003C00010F0C39A01C0C3988FEF90E722E08150EC
:1003D00090402040E1F700C00000E7CF0024A7FDD7
:1003E00000942A0F301D401D501D601D701D801D82
:0803F000901D0895F894FFCF61
:1003F8003031323334353637383941424344454653
:020408000000F2
:00000001FF
